{
  "contractName": "BirthDateRegistry",
  "abi": [
    {
      "constant": true,
      "inputs": [],
      "name": "birthDetailsCount",
      "outputs": [
        {
          "name": "",
          "type": "uint256"
        }
      ],
      "payable": false,
      "stateMutability": "view",
      "type": "function",
      "signature": "0x70ab3473"
    },
    {
      "constant": true,
      "inputs": [
        {
          "name": "",
          "type": "uint256"
        }
      ],
      "name": "birthDetails",
      "outputs": [
        {
          "name": "id",
          "type": "uint256"
        },
        {
          "name": "nin",
          "type": "string"
        },
        {
          "name": "dateTime",
          "type": "string"
        },
        {
          "name": "fullName",
          "type": "string"
        },
        {
          "name": "fatherNIN",
          "type": "string"
        },
        {
          "name": "motherNIN",
          "type": "string"
        },
        {
          "name": "verified",
          "type": "bool"
        }
      ],
      "payable": false,
      "stateMutability": "view",
      "type": "function",
      "signature": "0xdb715c19"
    },
    {
      "inputs": [],
      "payable": false,
      "stateMutability": "nonpayable",
      "type": "constructor",
      "signature": "constructor"
    },
    {
      "anonymous": false,
      "inputs": [
        {
          "indexed": false,
          "name": "id",
          "type": "uint256"
        },
        {
          "indexed": false,
          "name": "nin",
          "type": "string"
        },
        {
          "indexed": false,
          "name": "dateTime",
          "type": "string"
        },
        {
          "indexed": false,
          "name": "fullName",
          "type": "string"
        },
        {
          "indexed": false,
          "name": "fatherNIN",
          "type": "string"
        },
        {
          "indexed": false,
          "name": "motherNIN",
          "type": "string"
        },
        {
          "indexed": false,
          "name": "verified",
          "type": "bool"
        }
      ],
      "name": "BirthDetailCreated",
      "type": "event",
      "signature": "0x88c96daa6e48d0a28b2510ab716a52039dec8664aa48a4f5bc3d248152595cf5"
    },
    {
      "anonymous": false,
      "inputs": [
        {
          "indexed": false,
          "name": "id",
          "type": "uint256"
        },
        {
          "indexed": false,
          "name": "verified",
          "type": "bool"
        }
      ],
      "name": "BirthDetailVerified",
      "type": "event",
      "signature": "0x08a405d620e1dfeb07633937246aea0ad0e6e465568dabc6d7f3f0dc7c4800da"
    },
    {
      "constant": false,
      "inputs": [
        {
          "name": "_nin",
          "type": "string"
        },
        {
          "name": "_dateTime",
          "type": "string"
        },
        {
          "name": "_fullName",
          "type": "string"
        },
        {
          "name": "_fatherNIN",
          "type": "string"
        },
        {
          "name": "_motherNIN",
          "type": "string"
        }
      ],
      "name": "createBirthDetail",
      "outputs": [],
      "payable": false,
      "stateMutability": "nonpayable",
      "type": "function",
      "signature": "0x7322a746"
    },
    {
      "constant": false,
      "inputs": [
        {
          "name": "_id",
          "type": "uint256"
        }
      ],
      "name": "toggleVerification",
      "outputs": [],
      "payable": false,
      "stateMutability": "nonpayable",
      "type": "function",
      "signature": "0xa4afedd6"
    }
  ],
  "bytecode": "0x6080604052600080553480156200001557600080fd5b50604080518082018252600881527f313233343536373800000000000000000000000000000000000000000000000060208083019190915282518084018452600a81527f323032312d30352d3033000000000000000000000000000000000000000000008183015283518085018552601b81527f55646f6368756b7775204368696275696b656d205061747269636b0000000000818401528451808601865260058082527f313233343500000000000000000000000000000000000000000000000000000082860152865180880190975286527f3635363836000000000000000000000000000000000000000000000000000000938601939093526200012894919290916401000000006200012e810204565b6200053c565b6000805460019081018083556040805160e08101825282815260208082018b81528284018b9052606083018a90526080830189905260a0830188905260c083018790529386528481529190942084518155915180519293620001999390850192919091019062000497565b5060408201518051620001b791600284019160209091019062000497565b5060608201518051620001d591600384019160209091019062000497565b5060808201518051620001f391600484019160209091019062000497565b5060a082015180516200021191600584019160209091019062000497565b5060c08201518160060160006101000a81548160ff0219169083151502179055509050507f88c96daa6e48d0a28b2510ab716a52039dec8664aa48a4f5bc3d248152595cf5600054868686868660006040518088815260200180602001806020018060200180602001806020018715151515815260200186810386528c818151815260200191508051906020019080838360005b83811015620002bf578181015183820152602001620002a5565b50505050905090810190601f168015620002ed5780820380516001836020036101000a031916815260200191505b5086810385528b5181528b516020918201918d019080838360005b838110156200032257818101518382015260200162000308565b50505050905090810190601f168015620003505780820380516001836020036101000a031916815260200191505b5086810384528a5181528a516020918201918c019080838360005b83811015620003855781810151838201526020016200036b565b50505050905090810190601f168015620003b35780820380516001836020036101000a031916815260200191505b5086810383528951815289516020918201918b019080838360005b83811015620003e8578181015183820152602001620003ce565b50505050905090810190601f168015620004165780820380516001836020036101000a031916815260200191505b5086810382528851815288516020918201918a019080838360005b838110156200044b57818101518382015260200162000431565b50505050905090810190601f168015620004795780820380516001836020036101000a031916815260200191505b509c5050505050505050505050505060405180910390a15050505050565b828054600181600116156101000203166002900490600052602060002090601f016020900481019282601f10620004da57805160ff19168380011785556200050a565b828001600101855582156200050a579182015b828111156200050a578251825591602001919060010190620004ed565b50620005189291506200051c565b5090565b6200053991905b8082111562000518576000815560010162000523565b90565b611141806200054c6000396000f3fe6080604052600436106100615763ffffffff7c010000000000000000000000000000000000000000000000000000000060003504166370ab347381146100665780637322a7461461008d578063a4afedd61461035e578063db715c1914610388575b600080fd5b34801561007257600080fd5b5061007b6105d4565b60408051918252519081900360200190f35b34801561009957600080fd5b5061035c600480360360a08110156100b057600080fd5b8101906020810181356401000000008111156100cb57600080fd5b8201836020820111156100dd57600080fd5b803590602001918460018302840111640100000000831117156100ff57600080fd5b91908080601f016020809104026020016040519081016040528093929190818152602001838380828437600092019190915250929594936020810193503591505064010000000081111561015257600080fd5b82018360208201111561016457600080fd5b8035906020019184600183028401116401000000008311171561018657600080fd5b91908080601f01602080910402602001604051908101604052809392919081815260200183838082843760009201919091525092959493602081019350359150506401000000008111156101d957600080fd5b8201836020820111156101eb57600080fd5b8035906020019184600183028401116401000000008311171561020d57600080fd5b91908080601f016020809104026020016040519081016040528093929190818152602001838380828437600092019190915250929594936020810193503591505064010000000081111561026057600080fd5b82018360208201111561027257600080fd5b8035906020019184600183028401116401000000008311171561029457600080fd5b91908080601f01602080910402602001604051908101604052809392919081815260200183838082843760009201919091525092959493602081019350359150506401000000008111156102e757600080fd5b8201836020820111156102f957600080fd5b8035906020019184600183028401116401000000008311171561031b57600080fd5b91908080601f0160208091040260200160405190810160405280939291908181526020018383808284376000920191909152509295506105da945050505050565b005b34801561036a57600080fd5b5061035c6004803603602081101561038157600080fd5b503561092a565b34801561039457600080fd5b506103b2600480360360208110156103ab57600080fd5b5035610d49565b6040518088815260200180602001806020018060200180602001806020018715151515815260200186810386528c818151815260200191508051906020019080838360005b8381101561040f5781810151838201526020016103f7565b50505050905090810190601f16801561043c5780820380516001836020036101000a031916815260200191505b5086810385528b5181528b516020918201918d019080838360005b8381101561046f578181015183820152602001610457565b50505050905090810190601f16801561049c5780820380516001836020036101000a031916815260200191505b5086810384528a5181528a516020918201918c019080838360005b838110156104cf5781810151838201526020016104b7565b50505050905090810190601f1680156104fc5780820380516001836020036101000a031916815260200191505b5086810383528951815289516020918201918b019080838360005b8381101561052f578181015183820152602001610517565b50505050905090810190601f16801561055c5780820380516001836020036101000a031916815260200191505b5086810382528851815288516020918201918a019080838360005b8381101561058f578181015183820152602001610577565b50505050905090810190601f1680156105bc5780820380516001836020036101000a031916815260200191505b509c5050505050505050505050505060405180910390f35b60005481565b6000805460019081018083556040805160e08101825282815260208082018b81528284018b9052606083018a90526080830189905260a0830188905260c0830187905293865284815291909420845181559151805192936106439390850192919091019061103a565b506040820151805161065f91600284019160209091019061103a565b506060820151805161067b91600384019160209091019061103a565b506080820151805161069791600484019160209091019061103a565b5060a082015180516106b391600584019160209091019061103a565b5060c08201518160060160006101000a81548160ff0219169083151502179055509050507f88c96daa6e48d0a28b2510ab716a52039dec8664aa48a4f5bc3d248152595cf5600054868686868660006040518088815260200180602001806020018060200180602001806020018715151515815260200186810386528c818151815260200191508051906020019080838360005b8381101561075f578181015183820152602001610747565b50505050905090810190601f16801561078c5780820380516001836020036101000a031916815260200191505b5086810385528b5181528b516020918201918d019080838360005b838110156107bf5781810151838201526020016107a7565b50505050905090810190601f1680156107ec5780820380516001836020036101000a031916815260200191505b5086810384528a5181528a516020918201918c019080838360005b8381101561081f578181015183820152602001610807565b50505050905090810190601f16801561084c5780820380516001836020036101000a031916815260200191505b5086810383528951815289516020918201918b019080838360005b8381101561087f578181015183820152602001610867565b50505050905090810190601f1680156108ac5780820380516001836020036101000a031916815260200191505b5086810382528851815288516020918201918a019080838360005b838110156108df5781810151838201526020016108c7565b50505050905090810190601f16801561090c5780820380516001836020036101000a031916815260200191505b509c5050505050505050505050505060405180910390a15050505050565b6109326110b8565b600082815260016020818152604092839020835160e0810185528154815281840180548651600296821615610100026000190190911695909504601f810185900485028601850190965285855290949193858401939092908301828280156109db5780601f106109b0576101008083540402835291602001916109db565b820191906000526020600020905b8154815290600101906020018083116109be57829003601f168201915b5050509183525050600282810180546040805160206001841615610100026000190190931694909404601f81018390048302850183019091528084529381019390830182828015610a6d5780601f10610a4257610100808354040283529160200191610a6d565b820191906000526020600020905b815481529060010190602001808311610a5057829003601f168201915b505050918352505060038201805460408051602060026001851615610100026000190190941693909304601f8101849004840282018401909252818152938201939291830182828015610b015780601f10610ad657610100808354040283529160200191610b01565b820191906000526020600020905b815481529060010190602001808311610ae457829003601f168201915b505050918352505060048201805460408051602060026001851615610100026000190190941693909304601f8101849004840282018401909252818152938201939291830182828015610b955780601f10610b6a57610100808354040283529160200191610b95565b820191906000526020600020905b815481529060010190602001808311610b7857829003601f168201915b505050918352505060058201805460408051602060026001851615610100026000190190941693909304601f8101849004840282018401909252818152938201939291830182828015610c295780601f10610bfe57610100808354040283529160200191610c29565b820191906000526020600020905b815481529060010190602001808311610c0c57829003601f168201915b50505091835250506006919091015460ff16151560209182015260c0820180511590526000848152600180835260409091208351815583830151805194955085949193610c7b9385019291019061103a565b5060408201518051610c9791600284019160209091019061103a565b5060608201518051610cb391600384019160209091019061103a565b5060808201518051610ccf91600484019160209091019061103a565b5060a08201518051610ceb91600584019160209091019061103a565b5060c091820151600691909101805460ff191691151591909117905581015160408051848152911515602083015280517f08a405d620e1dfeb07633937246aea0ad0e6e465568dabc6d7f3f0dc7c4800da9281900390910190a15050565b600160208181526000928352604092839020805481840180548651600296821615610100026000190190911695909504601f81018590048502860185019096528585529094919392909190830182828015610de55780601f10610dba57610100808354040283529160200191610de5565b820191906000526020600020905b815481529060010190602001808311610dc857829003601f168201915b50505060028085018054604080516020601f6000196101006001871615020190941695909504928301859004850281018501909152818152959695945090925090830182828015610e775780601f10610e4c57610100808354040283529160200191610e77565b820191906000526020600020905b815481529060010190602001808311610e5a57829003601f168201915b5050505060038301805460408051602060026001851615610100026000190190941693909304601f8101849004840282018401909252818152949594935090830182828015610f075780601f10610edc57610100808354040283529160200191610f07565b820191906000526020600020905b815481529060010190602001808311610eea57829003601f168201915b5050505060048301805460408051602060026001851615610100026000190190941693909304601f8101849004840282018401909252818152949594935090830182828015610f975780601f10610f6c57610100808354040283529160200191610f97565b820191906000526020600020905b815481529060010190602001808311610f7a57829003601f168201915b5050505060058301805460408051602060026001851615610100026000190190941693909304601f81018490048402820184019092528181529495949350908301828280156110275780601f10610ffc57610100808354040283529160200191611027565b820191906000526020600020905b81548152906001019060200180831161100a57829003601f168201915b5050506006909301549192505060ff1687565b828054600181600116156101000203166002900490600052602060002090601f016020900481019282601f1061107b57805160ff19168380011785556110a8565b828001600101855582156110a8579182015b828111156110a857825182559160200191906001019061108d565b506110b49291506110f8565b5090565b60e0604051908101604052806000815260200160608152602001606081526020016060815260200160608152602001606081526020016000151581525090565b61111291905b808211156110b457600081556001016110fe565b9056fea165627a7a72305820538bdc05310489a38fe67fd9ebc69ffcb636fd2c6fa1594b483209dd6e8171680029",
  "source": "pragma solidity ^0.5.0;\r\n\r\ncontract BirthDateRegistry{\r\n    uint public birthDetailsCount = 0;\r\n\r\n    struct BirthDetail{\r\n        uint id;\r\n        string nin;\r\n        string dateTime;\r\n        string fullName;\r\n        string fatherNIN;\r\n        string motherNIN;\r\n        bool verified;\r\n    }\r\n\r\n    mapping(uint => BirthDetail) public birthDetails;\r\n\r\nevent BirthDetailCreated(\r\n         uint id,\r\n         string nin,\r\n        string dateTime,\r\n        string fullName,\r\n        string fatherNIN,\r\n        string motherNIN,\r\n        bool verified\r\n);\r\n\r\nevent BirthDetailVerified(\r\n    uint id,\r\n    bool verified\r\n);\r\n    constructor() public{\r\n        createBirthDetail(\"12345678\", \"2021-05-03\", \"Udochukwu Chibuikem Patrick\", \"12345\",\"65686\");\r\n    }\r\n    function createBirthDetail(string memory _nin, string memory _dateTime,string memory _fullName, string memory _fatherNIN, string memory _motherNIN) public {\r\n        birthDetailsCount++;\r\n        birthDetails[birthDetailsCount] = BirthDetail(birthDetailsCount, _nin, _dateTime,_fullName, _fatherNIN, _motherNIN, false);\r\n        emit BirthDetailCreated(birthDetailsCount, _nin, _dateTime,_fullName, _fatherNIN, _motherNIN, false);\r\n    }\r\n\r\n    function toggleVerification(uint _id)public{\r\n        BirthDetail memory _birthDetail = birthDetails[_id];\r\n        _birthDetail.verified = !_birthDetail.verified;\r\n        birthDetails[_id] = _birthDetail;\r\n        emit BirthDetailVerified(_id, _birthDetail.verified);\r\n    }\r\n}",
  "sourcePath": "C:/Users/HP USER/Documents/Blockchain Apps/eth-birthdate-registry/contracts/BirthDateRegistry.sol",
  "compiler": {
    "name": "solc",
    "version": "0.5.0+commit.1d4f565a.Emscripten.clang"
  },
  "schemaVersion": "3.0.1",
  "updatedAt": "2021-08-15T17:41:24.332Z",
  "devdoc": {
    "methods": {}
  },
  "userdoc": {
    "methods": {}
  }
}